:1000000000308A0019280000223084008313000881
:10001000031918280130F800F701F70B0D28F80B29
:100020000C284A30F700F70B13281628800B0A28F3
:10003000080003081F398300193083169900A63081
:10004000980090308312980083161F149F141F1578
:100050009F1107309C008313313083120C1E2E2811
:1000600099000230A100FA30A2000420A10B33282D
:1000700032300C1E392899000230A100FA30A2005B
:100080000420A10B3E2833300C1E44289900023076
:10009000A100FA30A2000420A10B492834300C1E24
:1000A0004F2899000230A100FA30A2000420A10BD1
:1000B00054282A300C1E5A2899001430A100FA3016
:0E00C000A2000420A10B5F2883162C286300E9
:02400E00393F38
:00000001FF
;PIC16F877A
;CRC=2A2E  CREATED="31-May-23 22:48"
