:1000000000308A0019280000223084008313000881
:10001000031918280130F800F701F70B0D28F80B29
:100020000C284A30F700F70B13281628800B0A28F3
:10003000080003081F398300193083169900A63081
:10004000980090308312980083161F149F141F1578
:100050009F1107309C008313683083120C1E2E28DA
:1000600099000230A100FA30A2000420A10B33282D
:1000700065300C1E392899000230A100FA30A20028
:100080000420A10B3E286C300C1E4428990002303D
:10009000A100FA30A2000420A10B49286C300C1EEC
:1000A0004F2899000230A100FA30A2000420A10BD1
:1000B00054286F300C1E5A2899000230A100FA30E3
:1000C000A2000420A10B5F2820300C1E6528990097
:1000D0000230A100FA30A2000420A10B6A28573098
:1000E0000C1E702899000230A100FA30A2000420F2
:1000F000A10B75286F300C1E7B2899000230A100DF
:10010000FA30A2000420A10B802872300C1E862831
:1001100099000230A100FA30A2000420A10B8B2824
:100120006C300C1E912899000230A100FA30A20018
:100130000420A10B962864300C1E9C2899000230E4
:10014000A100FA30A2000420A10BA1282A300C1E25
:10015000A72899001430A100FA30A2000420A10BB6
:08016000AC2883162C28630073
:02400E00393F38
:00000001FF
;PIC16F877A
;CRC=8D5F  CREATED="01-Haz-23 17:51"
