:1000000001308A00F02900004937E337ED34EE3340
:100010002022613A611DA01273002027F536E232DA
:10002000721DA012731000013A308400831300087F
:10003000031928280130F800F701F70B1D28F80BE9
:100040001C284A30F700F70B23282628800B1A2893
:1000500008003F0EF039F7000F30080577048800DC
:10006000000008143328081008000808F700080EDC
:100070000F39F80008008316081088100811831241
:1000800088100F3083160805F03888008312081591
:1000900000000814000035207808BF000810000098
:1000A0000814000035207808BE0008100F308316B1
:1000B0000805880083123F0EF700F030F705770837
:1000C0003E04F8007808BE00BE1B41283C1C881086
:1000D0003C18881400000811000008103D0EBE00F6
:1000E0000F30BE053E08BF0029203D080F39BE0075
:1000F000BF00292008002830B6000C30B7000130BE
:10010000B8000630B9000810881008110F308316A7
:10011000080588000810881008110F308312BA00F3
:1001200014200130B5003508033C031C9F28033020
:10013000BF0029200530BA001420B50A93280230E8
:10014000BF0029200530BA001420B5013508033C52
:10015000031CB62836303507840083130008BA0024
:10016000BC013A08BD003B20B50AA6288A110A1234
:10017000082A37080739F700370CF800F80CF80C94
:100180001F30F80578083907840083133A1883175D
:10019000F801F80AF70ACD28F80DF70BCC28B808B3
:1001A0000319D52878088004D828F809780880052C
:1001B000080037080739F700370CF800F80CF80C7E
:1001C0001F30F8057808380784008313391883171F
:1001D0000008F800F70AED28F80CF70BEC280800E7
:1001E0003508B7000130B800BA018030B900B92035
:1001F0003508B700B901B801D920B6017818B60A98
:100200001430BA0014203508B7000130B800BA0124
:100210008030B900B9203508B700B901B801D9203C
:100220000030781801303602031D1A293608F8000C
:100230001C291C29FF30F8008A110A12142A0B0805
:10024000B6008B13831603178C170C1400000000E4
:1002500083120313B61B8B170318572903170C08B7
:100260007F390313B60003170D080313B7000317F4
:100270000F080313B80036080C1E3C2999003708F4
:1002800003178D000313380803178F0003130B089F
:10029000B9008B13831603178C170C140000000091
:1002A00083120313B91B8B17B50B57297729031733
:1002B0000C0D0E0D7F390313B60003170D08031341
:1002C000B70003170F080313B80036080C1E662981
:1002D0009900370803178D000313380803178F00A0
:1002E0008D0A03198F0A03100313B50B1F29080089
:1002F000800803198E29B6010408B5003610831B47
:10030000361400080C1E82299900350884008313D6
:1003100036188317840A0319850A78290800390BCF
:10032000922995294030BA009629BA010130380245
:10033000BA073A088038BB00BC013B08BD003B202F
:1003400008003708073A0319AF290B3A0319B429F3
:10035000063A0319BC29023A0319C229C7290130F8
:10036000B800B9008F21CC29BC010130BD003B2071
:100370000230BA001420CC290130B8000230B90094
:100380008F21CC29BC011030BD003B20CC2901308D
:10039000BC003708BD003B20080080080319E22993
:1003A000B6010408B5003610831B36140008B700E8
:1003B000A12135088400831336188317840A031992
:1003C000850ACD298A110A12442A78080319ED29D1
:1003D00077088000840AF80BE8298A110A124B2A50
:1003E00003081F398300193083169900A63098003E
:1003F000903083129800A60183161F149F141F15B6
:100400009F1107309C0083138312A001A1017B2858
:100410000A30BA0014208C1E532A8C1E0D2A1A088A
:10042000B3003F30B500F0287808B400340B532AED
:1004300033082A3C031D4C2AA601043003178D0003
:1004400000308F0003100F300313B5001F21273039
:100450008400831378210D3003178D0000308F0046
:10046000031009300313B5001F21273084008313C4
:10047000782120300C1E3A2A99000A30B700A121B9
:10048000273084008313CD29273084008313F7019C
:100490000B30F800E529532A273026078400831300
:0A04A00033088000A60A0B2A63004F
:02400E00393F38
:00000001FF
;PIC16F877A
;CRC=D4CB  CREATED="01-Haz-23 17:50"
