:1000000003308A00C92B00004937E337ED34EE3363
:100010002022613A611DA01273002027F536E232DA
:10002000721DA012EC3A20000C2B6136F532BD1285
:10003000EC3A0000383084008313000803192E289E
:100040000130F800F701F70B2328F80B22284A307B
:10005000F700F70B29282C28800B202808003F0EDA
:10006000F039F7000F300805770488000000081405
:100070003928081008000808F700080E0F39F800A2
:1000800008008316081088100811831288100F309A
:1000900083160805F038880083120815000008143C
:1000A00000003B207808BF00081000000814000082
:1000B0003B207808BE0008100F3083160805880022
:1000C00083123F0EF700F030F70577083E04F80082
:1000D0007808BE00BE1B47283C1C88103C188814BA
:1000E00000000811000008103D0EBE000F30BE05D4
:1000F0003E08BF002F203D080F39BE00BF002F2053
:1001000008002830AF000C30B0000130B1000630DC
:10011000B2000810881008110F30831608058800F7
:100120000810881008110F308312B8001A2001300F
:10013000AE002E08033C031CA5280330BF002F206F
:100140000530B8001A20AE0A99280230BF002F20CF
:100150000530B8001A20AE012E08033C031CBC2851
:100160002F302E07840083130008B300BC0133082E
:10017000BD004120AE0AAC288A110A12E12B0B08FF
:10018000AF008B13831603178C170C1400000000AC
:1001900083120313AF1B8B170318F72803170C08E0
:1001A0007F390313AF0003170D080313B0000317C3
:1001B0000F080313B1002F080C1EDC28990030082B
:1001C00003178D000313310803178F0003130B0867
:1001D000B2008B13831603178C170C140000000059
:1001E00083120313B21B8B17AE0BF72817290317C3
:1001F0000C0D0E0D7F390313AF0003170D08031309
:10020000B00003170F080313B1002F080C1E0629B6
:100210009900300803178D000313310803178F006E
:100220008D0A03198F0A03100313AE0BBF280800B1
:10023000800803192E29AF010408AE002F10831B7C
:100240002F1400080C1E222999002E088400831305
:100250002F188317840A0319850A18298A110A128C
:10026000FD2BB401B2010A30B300B101B0012E0878
:100270002F04031D3F290030F800F900642A3408D8
:10028000B40A2E07840083132F1883170008B500C3
:1002900035082D3C031D58290130B2003408B40A3A
:1002A0002E07840083132F1883170008B5006529D3
:1002B00035082B3C031D65293408B40A2E07840039
:1002C00083132F1883170008B50035082F3C031837
:1002D000552A3508393C031C552A3508303C031D86
:1002E000912934082E07840083132F1883170008E0
:1002F000783C0319852934082E07840083132F18AE
:1003000083170008583C031D91291030B300B40A2C
:100310003408B40A2E07840083132F1883170008AB
:10032000B50033080A3C031DE42935082F3C0318A7
:10033000E3293508393C031CE329B7010A30B6002C
:100340003108B9003008B800370839068039BB00D9
:10035000B71FAF29B609B709B60A0319B70AB91FFB
:10036000B629B809B909B80A0319B90A1030BA0090
:10037000F701FA01B70CB60C031CC4293808F707BB
:100380000318FA0A3908FA07FA0CF70CF90CF80CFA
:10039000BA0BBA29BB1FD129F809F909F80A0319C0
:1003A000F90A303035027807B0007908B100031837
:1003B000B10A3408B40A2E07840083132F18831758
:1003C0000008B5009529552A3308103C031D552A0D
:1003D0003508603C0318F32935087A3C031CF329DF
:1003E0003508DF39F4293508B50035082F3C0318E6
:1003F000FD293508393C0318052A3508403C031807
:10040000552A3508463C031C552A35082F3C03184D
:10041000262A3508393C031C262A300DB600310D3A
:10042000B700B60DB70DB60DB70DB60DB70DF03060
:10043000B605303035023607F8003708FA000318E1
:10044000FA0A7808B0007A08B1003F2A300DB600E9
:10045000310DB700B60DB70DB60DB70DB60DB70D12
:10046000F030B605413035020A3E3607F80037084D
:10047000FA000318FA0A7808B0007A08B1003408C4
:10048000B40A2E07840083132F1883170008B500C1
:10049000603C0318522A35087A3C031C522A35085E
:1004A000DF39532A3508B500F52933080A3C031D06
:1004B000602A320B602AB009B109B00A0319B10AE7
:1004C0003008F8003108F9008A110A12012CB6012F
:1004D0000408B5003610831B36142F0EF038B10017
:1004E000B107E23EB200323EB4002F080F39B20726
:1004F000B207B407E93EB300B307B3072E0E0F39B6
:10050000B307B407B30DB40DB409B40D2E080F39F9
:10051000B407B10D0730B0000A30B407B303031CB1
:100520008D2AB307B203031C912AB207B103031C3F
:10053000952AB107B003031C992A30308400831335
:100540000730350535138407343004020319351795
:100550000008F700031DB42A351BB42A351ABC2A3B
:10056000B519B42A2030B72AB51535123030F7073F
:1005700077080C1EB92A9900840A351FA42A8A110B
:100580000A12192C390BC52AC82A4030BA00C92AC8
:10059000BA0101303802BA073A088038BB00BC0102
:1005A0003B08BD00412008003708073A0319E22A3A
:1005B0000B3A0319E72A063A0319EF2A023A0319FC
:1005C000F52AFA2A0130B800B900C222FF2ABC017C
:1005D0000130BD0041200230B8001A20FF2A01304E
:1005E000B8000230B900C222FF2ABC011030BD00A1
:1005F0004120FF2A0130BC003708BD00412008001F
:100600000B08AF008B13831603178C170C14000014
:10061000000083120313AF1B8B170318372B03172C
:100620000C087F390313AF0003170D080313B00044
:1006300003170F080313B1002F08B700D4223008A6
:1006400003178D000313310803178F0003130B08E2
:10065000B2008B13831603178C170C1400000000D4
:1006600083120313B21B8B17AE0B372B562B0317BA
:100670000C0D0E0D7F390313AF0003170D08031384
:10068000B00003170F080313B1002F08B700D422DE
:10069000300803178D000313310803178F008D0AEC
:1006A00003198F0A03100313AE0B002B8A110A12D1
:1006B000272CB6010408B5003610831B36142F0E04
:1006C000F038B100B107E23EB200323EB4002F086C
:1006D0000F39B207B207B407E93EB300B307B30757
:1006E0002E0E0F39B307B407B30DB40DB409B40D12
:1006F0002E080F39B407B10D0730B0000A30B40727
:10070000B303031C7F2BB307B203031C832BB20775
:10071000B103031C872BB107B003031C8B2B3030B4
:100720008400831307303505351384073430040201
:10073000031935170008F700031DA62B351BA62B40
:10074000351AB82BB519A62B2030A92BB5153512A3
:100750003030F707AF010408AE002F10831B2F14B1
:100760007708B700D4222E08840083132F1883172C
:10077000840A351F962B8A110A122E2C7808031929
:10078000C62B77088000840AF80BC12B8A110A1245
:10079000352C03081F398300193083169900A630C1
:1007A0009800903083129800A60183161F149F149E
:1007B0001F159F1107309C0083138312A001A10114
:1007C00081280A30B8001A208C1E3D2C8C1EE62B86
:1007D0001A08AD002D082A3C031D362CA601043052
:1007E00003178D0000308F0003100F300313AE008D
:1007F000BF202730840083131829AF012730AE00B3
:1008000031297908AC007808AB000310AB0DAC0DB2
:100810000D3003178D0000308F00031009300313D3
:10082000AE00BF20103084002C08AF002B08AE00B3
:10083000672A20300C1E1A2C9900143003178D00E3
:1008400000308F00031007300313AE00002B103070
:1008500084002C08AF002B08AE00592B27308400F1
:100860008313F7010430F800BE2B3D2C27302607F8
:0E087000840083132D088000A60AE42B630089
:02400E00393F38
:00000001FF
;PIC16F877A
;CRC=24B7  CREATED="31-May-23 22:02"
