:1000000001308A008B2900004937E337ED34EE33A5
:100010002022613A611DA01273002027F536E232DA
:10002000721DA01263100001393084008313000890
:10003000031928280130F800F701F70B1D28F80BE9
:100040001C284A30F700F70B23282628800B1A2893
:1000500008003E0EF039F7000F30080577048800DD
:10006000000008143328081008000808F700080EDC
:100070000F39F80008008316081088100811831241
:1000800088100F3083160805F03888008312081591
:1000900000000814000035207808BE000810000099
:1000A0000814000035207808BD0008100F308316B2
:1000B0000805880083123E0EF700F030F705770838
:1000C0003D04F8007808BD00BD1B41283B1C88108A
:1000D0003B18881400000811000008103C0EBD00F9
:1000E0000F30BD053D08BE0029203C080F39BD007A
:1000F000BE00292008002830B5000C30B6000130C1
:10010000B7000630B8000810881008110F308316A9
:10011000080588000810881008110F308312B900F4
:1001200014200130B4003408033C031C9F28033022
:10013000BE0029200530B9001420B40A93280230EB
:10014000BE0029200530B9001420B4013408033C56
:10015000031CB62835303407840083130008B90027
:10016000BB013908BC003B20B40AA6288A110A1238
:10017000A3290B08B5008B13831603178C170C14D7
:100180000000000083120313B51B8B170318F1281E
:1001900003170C087F390313B50003170D08031369
:1001A000B60003170F080313B70035080C1ED62836
:1001B0009900360803178D000313370803178F00C3
:1001C00003130B08B8008B13831603178C170C143A
:1001D0000000000083120313B81B8B17B40BF12827
:1001E000112903170C0D0E0D7F390313B5000317EA
:1001F0000D080313B60003170F080313B7003508E3
:100200000C1E00299900360803178D0003133708C8
:1002100003178F008D0A03198F0A03100313B40B01
:10022000B9280800800803192829B5010408B4007A
:100230003510831B351400080C1E1C299900340846
:100240008400831335188317840A0319850A122939
:100250008A110A12BF29380B2E2931294030B900E2
:100260003229B90101303702B90739088038BA009C
:10027000BB013A08BC003B200800800803197D2917
:10028000B5010408B4003510831B35140008B6000E
:100290003608073A031956290B3A03195B29063A1F
:1002A00003196329023A031969296E290130B7003D
:1002B000B8002B217429BB010130BC003B20023067
:1002C000B900142074290130B7000230B8002B2186
:1002D0007429BB011030BC003B2074290130BB00E5
:1002E0003608BC003B207429340884008313351879
:1002F0008317840A0319850A3D298A110A12D52910
:1003000078080319882977088000840AF80B832964
:100310008A110A12DC2903081F3983001930831659
:100320009900A6309800903083129800A601831699
:100330001F149F141F159F1107309C0083138312F5
:10034000A001A1017B280A30B90014208C1EE429E9
:100350008C1EA8291A08B30033082A3C031DDD2986
:10036000A601043003178D0000308F0003100F30FA
:100370000313B400B92027308400831312290D30F1
:1003800003178D0000308F00031009300313B400F1
:10039000B92027300C1ECA29990020300C1ECE2906
:1003A00099002730840083133D292730840083136C
:1003B000F7010B30F8008029E42927302607840054
:0C03C000831333088000A60AA6296300FE
:02400E00393F38
:00000001FF
;PIC16F877A
;CRC=E972  CREATED="01-Haz-23 17:51"
